:020000040000fa
:080000000001040000000000f3
:020000040000fa
:0400080038020000ba
:020000040000fa
:04000c0040020000ae
:020000040000fa
:040010005802000092
:020000040000fa
:04001400480200009e
:020000040000fa
:040018005002000092
:020000040000fa
:04001c007802000066
:020000040000fa
:040020007802000062
:020000040000fa
:04002400780200005e
:020000040000fa
:04002800780200005a
:020000040000fa
:04002c007802000056
:020000040000fa
:040030007802000052
:020000040000fa
:04003400780200004e
:020000040000fa
:04003800780200004a
:020000040000fa
:04003c007802000046
:020000040000fa
:040040007802000042
:020000040000fa
:04004400780200003e
:020000040000fa
:04004800780200003a
:020000040000fa
:04004c007802000036
:020000040000fa
:040050007802000032
:020000040000fa
:04005400780200002e
:020000040000fa
:04005800780200002a
:020000040000fa
:04005c007802000026
:020000040000fa
:040060007802000022
:020000040000fa
:04006400780200001e
:020000040000fa
:04006800780200001a
:020000040000fa
:04006c007802000016
:020000040000fa
:040070007802000012
:020000040000fa
:04007400780200000e
:020000040000fa
:04007800780200000a
:020000040000fa
:04007c007802000006
:020000040000fa
:040080007802000002
:020000040000fa
:0400840078020000fe
:020000040000fa
:0400880078020000fa
:020000040000fa
:04008c0078020000f6
:020000040000fa
:0400900078020000f2
:020000040000fa
:0400940078020000ee
:020000040000fa
:0400980078020000ea
:020000040000fa
:04009c00140200004a
:020000040000fa
:0400a00078020000e2
:020000040000fa
:0400a40078020000de
:020000040000fa
:0400a80078020000da
:020000040000fa
:0400ac0078020000d6
:020000040000fa
:0400b00078020000d2
:020000040000fa
:0400b40078020000ce
:020000040000fa
:0400b80078020000ca
:020000040000fa
:0400bc0078020000c6
:020000040000fa
:0400c00078020000c2
:020000040000fa
:0400c40078020000be
:020000040000fa
:0400c80078020000ba
:020000040000fa
:0400cc0078020000b6
:020000040000fa
:0400d00078020000b2
:020000040000fa
:0400d40078020000ae
:020000040000fa
:0400d80078020000aa
:020000040000fa
:0400dc0078020000a6
:020000040000fa
:0400e00078020000a2
:020000040000fa
:0400e400780200009e
:020000040000fa
:0400e800780200009a
:020000040000fa
:0400ec00040200000a
:020000040000fa
:0400f0007802000092
:020000040000fa
:0400f400780200008e
:020000040000fa
:0400f800780200008a
:020000040000fa
:0400fc0026020000d8
:020000040000fa
:040100007802000081
:020000040000fa
:04010400780200007d
:020000040000fa
:040108007802000079
:020000040000fa
:04010c007802000075
:020000040000fa
:040110007802000071
:020000040000fa
:04011400780200006d
:020000040000fa
:040118007802000069
:020000040000fa
:04011c007802000065
:020000040000fa
:040120007802000061
:020000040000fa
:04012400780200005d
:020000040000fa
:040128007802000059
:020000040000fa
:04012c007802000055
:020000040000fa
:040130007802000051
:020000040000fa
:04013400780200004d
:020000040000fa
:040138007802000049
:020000040000fa
:04013c007802000045
:020000040000fa
:040140007802000041
:020000040000fa
:04014400780200003d
:020000040000fa
:040148007802000039
:020000040000fa
:04014c007802000035
:020000040000fa
:040150007802000031
:020000040000fa
:04015400780200002d
:020000040000fa
:040158007802000029
:020000040000fa
:04015c007802000025
:020000040000fa
:040160007802000021
:020000040000fa
:04016400780200001d
:020000040000fa
:040168007802000019
:020000040000fa
:04016c007802000015
:020000040000fa
:040170007802000011
:020000040000fa
:04017400780200000d
:020000040000fa
:040178007802000009
:020000040000fa
:04017c007802000005
:020000040000fa
:040180007802000001
:020000040000fa
:0401840078020000fd
:020000040000fa
:0401880078020000f9
:020000040000fa
:04018c0078020000f5
:020000040000fa
:0401900078020000f1
:020000040000fa
:0401940078020000ed
:020000040000fa
:0401980078020000e9
:020000040000fa
:04019c0078020000e5
:020000040000fa
:0401a00078020000e1
:020000040000fa
:0401a40078020000dd
:020000040000fa
:0401a80078020000d9
:020000040000fa
:0401ac0078020000d5
:020000040000fa
:0401b00078020000d1
:020000040000fa
:0401b40078020000cd
:020000040000fa
:0401b80078020000c9
:020000040000fa
:0401bc0078020000c5
:020000040000fa
:0401c00078020000c1
:020000040000fa
:0401c40078020000bd
:020000040000fa
:0401c80078020000b9
:020000040000fa
:0401cc0078020000b5
:020000040000fa
:0401d00078020000b1
:020000040000fa
:0401d40078020000ad
:020000040000fa
:0401d80078020000a9
:020000040000fa
:0401dc0078020000a5
:020000040000fa
:0401e00078020000a1
:020000040000fa
:0401e400780200009d
:020000040000fa
:0401e8007802000099
:020000040000fa
:0401ec007802000095
:020000040000fa
:0401f0007802000091
:020000040000fa
:0401f400780200008d
:020000040000fa
:0401f8007802000089
:020000040000fa
:0401fc007802000085
:020000040000fa
:10020000afd720000e7f24000e0188000000000000
:10021000000020000000e000020032000001200089
:100220002002880014000700b40007000000e0006e
:1002300003003a00001129000100200002003700ed
:100240000000200001002000810f7000010032003a
:1002500014000700000020000000e000020032004f
:100260000000020000000000d27b0200000000003d
:100270000040da000000fe004440a9004045200094
:100280000000e00003003200002020009001880000
:100290004440a800000006008a1f78008b1f7800e9
:1002a00000000600a1028800800478000000eb0036
:1002b0001f003700e284440054a0b4009905ba003e
:1002c000e284440054a0b4009906ba00e2844400d9
:1002d00054a0b4000006eb00476fde00fd07b2003b
:1002e000ae018800636ce10003003a00eaff0700fa
:1002f0000000eb000e003700606ce10008003a00df
:10030000004deb000a05e800020039003420ec0043
:100310000af0a0008b05e900f9ff3e000400370059
:100320006168e100010032000086eb000b0007006d
:1003300019c7ba001905ba000e04e00003003a001c
:100340000a00e000dbff3a0000000600fe07b200f2
:10035000ae0288008a047800f5ff37000cd0a300b5
:10036000e20f4d001c00390089027800354dba00bb
:100370000a05e800020039003420ec000af0a00071
:100380008b05e9000f003200254dba000a05e80090
:10039000020039003420ec000af0a0008b05e900cf
:1003a000080032000c00e0000600320015cdba0053
:1003b0000a05e800020039003420ec000af0a00031
:1003c0008b05e9008984e80054a0b4000b00e0002c
:1003d000e2ff3a00000006009902ba00055d7800cd
:1003e0008b05e900f7ff3200c82ade00055d7800c2
:1003f0008b05e900f3ff32000c00e000f1ff320052
:1004000019ddba00eeff3700801f78000000fa0007
:100410008e20a90010c0b30062edb7000080fa0082
:100420004f00780000400600801f78000000fa00ae
:1004300010c0b30064edb700656def008ba0a9009c
:100440000080fa004f00780000400600801f78000e
:100450000000fa0010c0b30063edb700666def0056
:100460008ea0a9000080fa004f007800004006002e
:100470000000fa000040da008020a900ffff3700ea
:100480000000fa000040da008060a900ffff37009a
:100490000000fa000040da008040a900ffff3700aa
:1004a0000000fa000040da008080a900ffff37005a
:1004b0000000fa000040da0000000000feff3700f4
:1004c0000000fa008020a900ffff37000000fa00ba
:1004d0008060a900ffff37000000fa008040a900fb
:1004e000ffff37000000fa008080a900ffff3700ff
:1004f0000000fa000040da00ffff370000000500ae
:10050000839f68000100e00002003d0060001000d1
:10051000e08018000300e00002003d0060011100cf
:10052000e0811900050007004f00e00002003b00d9
:1005300060001000e0801800000006006022b80093
:10054000060220000000d0008180d2000482d20088
:100550008582d2000000a0000202520083825a006d
:10056000030031000202420083824a000000a10021
:100570000603e900f3ff3a0000000600efff070062
:100580000400be0000000600889fbe008a9fbe00d7
:1005900030044200b0844a0030054b0090854b0087
:1005a0006000b1000898be000a90be000440e1005f
:1005b00005c8e10006d0e10007d8e10002003100e3
:1005c000680040001008e8004f05be004f04be0060
:1005d00000000600889fbe008a9fbe003004be0057
:1005e0002005be000418540005985c0006185d0044
:1005f00007985d00110020000440e10005c8e100fb
:1006000006d0e10007d8e100010039008000eb00ce
:10061000108810004f05be004f04be000000060009
:100620001200fa00889fbe008a9fbe008c9fbe0009
:10063000e0b79f00f1b79f0082bf9f0093bf9f006c
:100640000605be000404be000000eb00d0b79f000a
:10065000c0b79f00b0b79f00a0b79f0090b79f00a2
:10066000000678005fb19700cfb09700820141008b
:100670003fb097000200e00004003d003700070093
:100680007e805700c0ff07000300370033000700db
:100690007e805700cfff0700dfb697000d00e00017
:1006a0000c0035006fb29700ffb297000fbb9700a8
:1006b0009fbb970010002000010020006011b800cf
:1006c0000002720081827200020373008383730050
:1006d0001b0007000c06e80001042000810f5600f3
:1006e000e0ff3a000d00e00004003d000802be00fb
:1006f0000a03be007e805700a3ff07005fa8970093
:100700000000e00005003a001fb29700afb297006a
:100710003fb39700cfb39700090007006fb0970071
:10072000ffb097000fb997009fb997004f06be0022
:100730004f05be004f04be000080fa000000060016
:100740000100070000000600a4b79f00b5b79f0096
:10075000c6b79f00d7b79f00000006004f09de0014
:1007600082817100b3b79f004f01de00818040009d
:1007700082807000a1b79f008fb097004f09de0004
:10078000000040000200700090b79f007fa8970013
:100790004f01de00818040008280700081b79f00a1
:1007a0000d0007004f3ade0000004000040070001a
:1007b000f0af9f00080007000402420085824a0053
:1007c00006034b0087834b00dfff07000802be00d3
:1007d0000a03be00000006002fb29700bfb29700c8
:1007e0004fb39700dfb3970000000600881f780022
:1007f00018002000881f780089ff07008f87e90014
:100800004f04780000000600801feb0084ff070003
:100810008f87e90000000600889fbe008a9fbe0007
:10082000e00f5000e08f5800e00f5900e08f5900b2
:100830000c003d006044b8006055b8000000540052
:1008400081805c0002015d0083815d001800200052
:100850001500070008003d00180007000004eb0029
:10086000050037000004eb000f00070002003d0008
:100870001200070018002000dcff07000800e0005d
:10088000060032006022b8006033b8000000520059
:1008900081805a0002015b0083815b004f05be002e
:1008a0004f04be0000000600e00f5200e08f5a0027
:1008b000e00f5b00e08f5b00000006006044b800c2
:1008c0006055b8000402540085825c0006035d0098
:1008d00087835d0000000600889fbe008a9fbe00df
:1008e0008c1f7800e00f5000e08f5800e00f590097
:1008f000e08f59000d003d006044b8006055b8001d
:100900000000540081805c0002015d0083815d0075
:100910001c0020000820e10009a8e1000ab0e10065
:100920000bb8e1000d003d00080037000006eb00a9
:10093000e00f5200e08f5a00e00f5b00e08f5b0099
:1009400006003d006044b8006055b8000402540041
:1009500085825c0006035d0087835d00aaff0700b7
:100960000c00e000060032006022b8006033b800de
:100970000000520081805a0002015b0083815b000d
:100980004f0678004f05be004f04be000000060071
:10099000889fbe008a9fbe008c1f78000006eb0077
:1009a000e00f5000e08f5800e00f5900e08f590031
:1009b00007003d006044b8006055b80000005400d6
:1009c00081805c0002015d0083815d001c002000cd
:1009d000e00f5200e08f5a00e00f5b00e08f5b00f9
:1009e00007003d006044b8006055b80004025400a0
:1009f00085825c0006035d0087835d000c00a20019
:100a00000c0007000c00e000060032006022b80075
:100a10006033b8000000520081805a0002015b0080
:100a200083815b004f0678004f05be004f04be0077
:100a300000000600889fbe008a9fbe008c9fbe00fb
:100a40000404b8000506b8008904460060854e001d
:100a50000606b8000a054600e0854e000706b80005
:100a60008b054600040eb800890446000a854e0036
:100a7000e0854d00050eb8000a0546008b854e0046
:100a8000060eb8008b0546000416b8000a0546009d
:100a90008b854e000516b8008b054600041eb80075
:100aa0008b0546000800be000a01be004f06be00ce
:100ab0004f05be004f04be00000006008001780014
:100ac00002003700b15978000201e9000200e0009d
:100ad000fcff3a000000060000017800b1417800f8
:100ae000035978000304e000fcff3a000000060010
:020000040000fa
:100af0000200fa00004f78001e40780064000700f2
:100b0000ac24a900ac04a900aac4a800ab64a80046
:100b10007e46a9007e66a900abe4a8008e20a9004d
:100b20009e20a8000080fa00000006000600fa00df
:100b300071258000000220000080600000f0a70006
:100b40000000ea000000e9004f00de00004f7800de
:100b5000702580006400600000f0a7000000ea003b
:100b60000000e9004f00de00104798001e407800aa
:100b70000004e000140032001e4090000004e00079
:100b80000600320010002000a06b88005d00070006
:100b900020479800ab84a8003b00370059000700ad
:100ba0003047980020002000a06b880072cdbf0065
:100bb000b40007005800070072cdbf0067000700af
:100bc00072edb700300037001e4090000004e000d6
:100bd00022003200a06b8000e10f50000f003a00ad
:100be00048000700404798004e4090007f000700f3
:100bf0000004e000070032004e41900021d72000a1
:100c00008248780030002000a06b8800490007006f
:100c10001d0037004c0007001b003700390007009b
:100c20005047980072cdbf00de4090007e00070064
:100c300048cdbf000004e0000400320072cdbf00c8
:100c40004600070072edb7000200370010002000d8
:100c5000a06b8800370007000b003700712580006b
:100c600000002800008060000000e00006003a005c
:100c700072cdbf00830007002700070072cdbf00c0
:100c80003600070072edb7000080fa000000060091
:100c90000200fa00004f780067cdbf000004a200f8
:100ca0000004e000080032001e4078000080fb00d5
:100cb0000000d100004078000080fb008025880003
:100cc0001e40780071edb7000e0078004045070027
:100cd0000080fa00000006000200fa00004f7800d1
:100ce0001e80fb0060004000e20f500002003e004a
:100cf00010c0b300010037000040eb000080fa0094
:100d0000000006000000fa00202580000040780066
:100d10000080fa00000006000200fa00004f780090
:100d20001e80fb0030258800ab84a8000080fa00fc
:100d3000000006000000fa00aaa4a900ab84a800e5
:100d40000080fa00000006000000fa00aaa4a80033
:100d5000ab84a8000080fa00000006000200fa0040
:100d6000004f78001e407800dbff07000004e00021
:100d70000d00320048cdbf000004a2000004e000d6
:100d8000020032001e407800160037001e4fe800b7
:100d90001e407800e24f5000110036000040eb008a
:100da000004f78000e00370048cdbf000004a200bd
:100db0000004e000020032001e4078000900370005
:100dc0001e4fe8001e407800f44f5000020036002d
:100dd00000c1b300004f78001e40780001003700ca
:100de0000040eb000080fa00000006000200fa005c
:100df000004f78001e80fb000000e0000700350077
:100e0000e20f50000300340070005000e40f500067
:100e100002003e0010c0b300010037000040eb00ac
:100e20000080fa00000006000200fa00004f78007f
:100e3000114798001e80fb00e10f500007003200b0
:100e4000e20f5000080032000000e0000a003a0003
:100e50001e40900008460700080037001e40900022
:100e60003a460700050037001e40900088ff070043
:100e70000000000001003700000000000080fa00c0
:100e8000000006000200fa00004f78001e80fb0000
:100e9000f00f500018003200f00f500007003c0027
:100ea000e10f500010003200e20f5000100032003d
:100eb0000000e0000a0032001e003700f20f500070
:100ec00013003200f20f50000e003500f30f5000f7
:100ed00012003200f40f50001300320015003700ea
:100ee00039460700140037005f460700120037003c
:100ef00071cdbf0010003700110007004ecdbf00bc
:100f00000d0037000e0007004dcdbf000a0037006e
:100f10000b00070050cdbf00070037000800070096
:100f200051cdbf0004003700050007004fcdbf00c2
:100f3000010037000040eb000080fa0000000600ce
:100f40000000fa00a14607004b6def000080fa0098
:040f50000000060097
:020000040000fa
:100f5400f03fb1000180b10006003500ee03090046
:100f640000000000403fb1000180b100fbff3d00e4
:100f74001000b000203fb0000200350000800900de
:080f840000000000000006005f
:020000040000fa
:10300000005600004c350000334c000030580000e2
:103010002054000053300000005600004c350000e2
:10302000334c0000305800002054000053310000a1
:10303000005600004c350000334c000030580000b2
:103040002054000053320000005600004c350000b0
:10305000334c000030580000204500005331000080
:10306000206f0000722000006c6100007465000099
:1030700072000000564c0000353300004c30000058
:10308000580000004e6f00002055000070640000e2
:1030900061740000650000005643000053450000c5
:1030a0004c200000436f00006e740000696e000049
:1030b00075690000747900002054000065730000f9
:1030c0007420000046610000696c00007572000009
:1030d0006500000056430000534500004c200000ee
:1030e0005761000074630000686400006f670000af
:1030f0002054000065730000742000004661000049
:10310000696c000075720000650000004e6f0000e1
:10311000205600004856000020560000616c000058
:1031200075650000206600006f7500006e64000089
:10313000004d000053520000432000004e6f00007d
:1031400020540000617200006765000074200000d8
:1031500045720000726f000072000000534e0000c4
:103160005220000043680000656300006b200000ef
:10317000457800006974000000520000616e000094
:103180006765000020500000686100007365000062
:103190002043000068650000636b000020450000cc
:1031a000727200006f720000005300006967000037
:1031b0006d6100002054000068720000657300001b
:1031c000686f00006c640000204300006865000028
:1031d000636b000020450000727200006f720000f7
:1031e00000540000434300002045000072720000bc
:1031f0006f720000005000006861000073650000fd
:10320000204300006f6e00007369000073740000bb
:10321000656e0000637900002045000072720000b6
:103220006f720000004d0000696e00002043000036
:103230006c6900007020000045720000726f000091
:1032400072000000526100006e67000065200000ff
:10325000436f00006d7000006c6500007465000035
:1032600000520000616e0000676500002041000010
:103270006c6700006f200000556e00006465000060
:10328000726600006c6f000077200000457200003d
:10329000726f000072000000526100006e67000053
:1032a00065200000416c0000676f0000204f0000a7
:1032b00076650000726c00006f770000204500000a
:1032c000727200006f72000000520000616e000018
:1032d0006765000020490000676e00006f72000003
:1032e00065200000546800007265000073680000eb
:1032f0006f6c00006420000045720000726f0000d7
:1033000072000000556e00006b6e00006f770000c9
:103310006e20000045720000726f000072200000f5
:10332000436f00006465000000520000616e000001
:103330006765000020560000616c000069640000b1
:1033400000530000696700006d6100002046000026
:10335000616900006c00000053690000676e0000a6
:10336000616c000020460000616900006c000000f4
:103370004d6900006e200000526100006e67000081
:103380006520000046610000696c000000500000ec
:10339000686100007365000020460000616900005c
:1033a0006c0000004861000072640000776100005a
:1033b0007265000020460000616900006c0000009a
:1033c0004e6f000020450000727200006f72000016
:1033d00000430000616c000069620000726100003f
:1033e000746900006f6e00002057000061720000d9
:1033f0006e6900006e6700002045000072720000d8
:103400006f720000004d0000696e00002063000034
:103410006c690000707000006564000020650000a9
:10342000727200006f720000005500006e640000b0
:1034300065660000696e000065640000206500009c
:10344000727200006f720000004900006e7600008a
:10345000616c00006964000020700000617200006f
:10346000616d00006574000065720000732000004b
:1034700065720000726f0000720000004e6f000065
:103480007420000073750000707000006f720000ff
:10349000746500006420000065720000726f000017
:1034a00072000000496e0000746500007272000036
:1034b00075700000742000006e6f00007420000022
:1034c000436c00006561000072650000640000004c
:1034d000526100006e670000652000006572000008
:1034e000726f000072000000546900006d650000fa
:1034f000206f0000757400002065000072720000eb
:103500006f720000004d00006f6400006520000035
:103510006e6f000074200000737500007070000072
:103520006f72000074650000642000006572000086
:10353000726f0000720000004275000066660000b5
:1035400065720000207400006f6f0000207300009f
:103550006d6100006c6c00000047000050490000e5
:103560004f2000006e6f000074200000657800009e
:1035700069730000746900006e6700000047000076
:10358000504900004f200000667500006e63000087
:10359000742000006e6f000074200000737500003e
:1035a000707000006f72000074650000640000001d
:1035b000436f00006e740000726f00006c2000000a
:1035c000496e0000746500007266000061630000cf
:1035d0006520000045720000726f0000720000005c
:1035e000496e0000766100006c69000064200000f4
:1035f000436f00006d6d0000616e000064200000ec
:1036000045720000726f0000720000004469000003
:1036100076690000736900006f6e00002062000090
:10362000792000007a650000726f000020450000dc
:10363000727200006f7200000052000065660000a8
:1036400065720000656e0000636500002053000095
:103650007061000064200000496e00006974000081
:1036600020450000727200006f720000004e0000e2
:103670006f740000206900006d7000006c65000030
:103680006d6500006e740000656400002065000038
:10369000727200006f720000005000004f5700006f
:1036a00045520000444f0000574e000020530000d8
:1036b000746100007465000000570000616900003b
:1036c00074200000666f0000722000007374000018
:1036d0006174000069630000696e00006974000095
:1036e0002053000074610000746500000053000066
:1036f000544100004e440000425900002053000095
:10370000746100007465000000490000444c000032
:103710004520000053740000617400006500000043
:10372000525500004e4e0000494e00004720000058
:10373000537400006174000065000000554e0000e5
:103740004b4e00004f5700004e2000005374000005
:10375000617400006500000045520000524f0000f7
:1037600052200000537400006174000065000000e6
:103770005443000043000000445300005300000085
:103780004d5300005243000000500000524500001d
:1037900020520000414e0000474500000046000056
:1037a000494e0000414c000020520000414e0000f4
:1037b0004745000000530000494700004d4100000c
:1037c00020460000494e0000414c000020520000fd
:1037d000414e0000474500000053000049470000eb
:1037e0004e4100004c2000005241000054450000b2
:1037f00020460000494e0000414c000020520000cd
:10380000414e0000474500000053000049470000ba
:103810004e4100004c2000005245000046200000b0
:10382000434c00004950000000520000414e00008f
:103830004745000020490000474e00004f5200005d
:103840004520000054480000524500005348000045
:103850004f4c00004400000053490000474e000058
:10386000414c00002052000041540000452000005f
:103870004d53000052430000005300004947000030
:103880004e4100004c200000524100005445000011
:10389000205000005245000020520000414e000020
:0838a000474500000000000094
:020000040000fa
:1038a8001600fa00000f9800120f9800230f9800d6
:1038b8000040eb00404798001e089000ae089000ba
:1038c8008100d1000080d30030079800410798009c
:1038d8006000b800008fbe001f0037001e0890006f
:1038e800ae0890003e015000ae8158000200be00b4
:1038f80061005000e0805800500798006107980068
:103908001e0078008e0890000080400090417800ea
:10391800634f98001e0078008e08900000804000d9
:10392800de0090000e09900081004100914078006f
:10393800014878005e0090008e08900000804000ea
:10394800ee48900001487800120020000300200093
:103958001e0f41005e9749003e009000ce00900087
:103968001e01be00800f5100818f5900dbff390016
:103978004e4090000080fa00000006000a00fa009d
:10398800400798000040eb00004f78000040eb0033
:10399800604798006000b800100798002107980059
:1039a80066004700800078004e009000111e070056
:1039b800004f78001e4078000004e00016003a002e
:1039c8006e409000e14f5000150032001e0090003c
:1039d800ae00900061004000e080480010079800a9
:1039e800210798001e019000ae019000f07c200095
:1039f80001002000800f5100818f5900030036001c
:103a080090cfb300004f7800060037004e009000ba
:103a1800ee380700e2ff3700000000000100370021
:103a2800000000001e4078000080fa000000060038
:103a38000400fa00204798000040eb00004f78008f
:103a48002e4090000040e80000404000004f780001
:103a58001e4078000080fa00000006000400fa000a
:103a6800204798000040eb00004f78002e4090005f
:103a78000080fb000000d10000407800004fe90002
:103a88001e4078000080fa00000006000c00fa00d2
:103a980040079800510798006000b800008fbe00ea
:103aa800000020000100240020079800310798003a
:103ab800080037002e009000be0090004e09dd007f
:103ac8004200de0000007100c208de0020079800f6
:103ad800310798002e019000be0190004e00900022
:103ae800de009000800f5100818f5900f1ff3e00e9
:103af800280037002e009000be0090003e014000d4
:103b0800ae8148004e009000de009000800f51000a
:103b1800818f590013003e002e009000be009000d7
:103b28003e014000ae8148000200be004e019000f8
:103b3800de01900000005100818059004007980084
:103b4800510798001e00be008101d1000081d300fa
:103b58002e009000be009000001f41000197490010
:103b6800040037001e00be008100d1000080d30091
:103b7800008fbe002e009000be009000ce09dd0030
:103b88004200de0000807100c208de0020079800b5
:103b9800310798002e009000be009000e00f500002
:103ba800e08f5800d3ff3a001e00be000080fa00e4
:103bb800000006000c00fa00200798003107980062
:103bc80042079800530798006000b800008fbe00b5
:103bd8002e019000be019000f0ff2f000100200090
:103be800800f5100818f590007003e004e01900060
:103bf800de019000f0ff2f0001002000800f51002f
:103c0800818f590004003600f0ff2f0001002000ca
:103c1800008fbe0020003700be0090002e009000ec
:103c28000088b900000078003e019000ae009000c6
:103c38000191b90082007800010040002e01900037
:103c4800ae0090000111b800030040008001780028
:103c5800de0090004e0090000088b9000002780055
:103c6800de0090004e0090000088b9000000780047
:103c780000024200ce0090004e0090000008b800fc
:103c8800010242008400780002004000838048005e
:103c98007eff0700008fbe001e00be000080fa00f5
:103ca800000006000a00fa00400798000040eb00f8
:103cb800004f78000041eb0031c8b3004e0090007f
:103cc800903707001e4f70001e4078000004e00087
:103cd80025003a006000b8001007980021079800f6
:103ce800660047000001780031c8b3004e0090001c
:103cf800f4370700004f78006e4090000004e000a1
:103d080010003a001e4078000004e0000d003a0060
:103d18001e009000ae00900061004000e080480066
:103d280010079800210798001e019000ae0190002e
:103d3800f07c200001002000800f5100818f590085
:103d4800e7ff36001e019000ae019000f07c2000d5
:103d580001002000800f5100818f590002003600b9
:103d680090cfb300004f780012c0b30031c8b30041
:103d78004e009000633707001e4f70001e40780009
:103d88000080fa00000006004e00fa005027980054
:103d980041cf98000040eb00004f78000040eb0056
:103da800104798000040eb00204798006000b800da
:103db80040179800511798006000b80060179800e5
:103dc800711798006000b800000f9800110f980054
:103dd8000000eb002007980000902100010020005f
:103de800200f9800310f98006000b8003007980045
:103df800410798006000b8005007980061079800d4
:103e08006000b800400f9800510f98005e209000a5
:103e1800e0e09100415f98004e589000e74f500055
:103e28007902320012c0b30001c8b3005e209000ce
:103e3800343707001e4f700012c0b30080c0eb007b
:103e48005e2090002f3707001e4f70000041eb00e6
:103e58008040eb005e2090002a3707001e4f70005c
:103e680062c0b30080c0eb005e20900025370700d9
:103e78001e4f7000000220000e0040000001780074
:103e880031c8b3005e2090008e3707001e4f7000c7
:103e98000e6090000024a0000041780031c8b300f3
:103ea8005e209000173707001e4f700072c0b300e5
:103eb80080c0eb005e209000123707001e4f700094
:103ec80012c0b30011c8b3005e2090000d37070080
:103ed8001e4f70005e209000bc3707001e4f700018
:103ee80012c0b30001c8b3005e2090000537070078
:103ef8001e4f70004ec890000080fb0061006000fb
:103f0800004078000004e000640032004e58900041
:103f18000080fb00610060000000e0005f003a00e4
:103f2800b2c6b30041c9b3005e209000f536070061
:103f38001e4f70005e2090005aff07001e4f700051
:103f4800200220000e0040000001780001c9b300e3
:103f58005e209000873707001e4f70001e109000eb
:103f6800ae1090004809dd004800de000000710036
:103f7800c808de00004078000074a10010479800cf
:103f88001e109000ae109000c109dd004f00de0049
:103f980000807100cf08de000040780061406000ba
:103fa8002047980042c2b30041c9b3005e20900088
:103fb800d43607001e4f70005e20900039ff0700be
:103fc8001e4f7000200220000e0040000001780003
:103fd80001c9b3005e209000663707001e4f7000cd
:103fe8001e109000ae1090004808de0000407800d7
:103ff80030c798001e109000ae1090004008de00f8
:104008000040780040c798001e109000ae10900045
:104018004809dd004800de0000007100c808de0025
:104028000040780050c798001e109000ae10900015
:104038000040780060c7980052c2b30041c9b3007d
:104048005e209000af3607001e4f70005e20900083
:1040580014ff07001e4f7000200220000e004000d1
:104068000001780001c9b3005e20900041370700c5
:104078001e4f70001e109000ae1090004808de0021
:104088000040780070c798001e109000ae10900095
:104098004008de000040780000cf98004ec890002d
:1040a8000080fb00620060000000e00004013200b4
:1040b8004e5890000080fb00620060000000e000a5
:1040c800ff003a0022c0b30041c9b3005e2090004f
:1040d8008c3607001e4f70005e209000f1fe07002e
:1040e8001e4f7000600220000e00400000017800a2
:1040f80001c9b3005e209000f23607001e4f700021
:10410800b2c7b30041c9b3005e2090007d360700f6
:104118001e4f70005e209000e2fe07001e4f7000e8
:10412800700220000e0040000001780001c9b300b1
:104138005e209000e33607001e4f700072c7b30080
:1041480041c9b3005e2090006e3607001e4f700014
:104158005e209000d3fe07001e4f70002002200052
:104168000e0040000001780001c9b3005e209000f5
:10417800003707001e4f70001e109000ae10900010
:104188004908de00004078000074a100007798001c
:104198001e109000ae1090004208de00004078002b
:1041a8000074a100107798001e109000ae109000c7
:1041b800c509dd004b00de0000807100cb08de0081
:1041c800004078000074a100207798001e1090002d
:1041d800ae1090004c09dd004400de0000007100c4
:1041e800c408de00004078000074a1003077980011
:1041f8001e109000ae10900000407800ef40600064
:10420800300020000008dd000067980082c7b30076
:1042180041c9b3005e2090003a3607001e4f700077
:104228005e2090009ffe07001e4f700020022000b5
:104238000e0040000001780001c9b3005e20900024
:10424800cc3607001e4f70001e109000ae10900074
:104258004d08de0000407800804078000174a1001d
:104268000e60900000c04000407798001e1090003b
:10427800ae1090004608de00004078000074a100ef
:10428800507798001e109000ae109000c109dd0014
:104298004f00de0000807100cf08de00004078008b
:1042a8000074a100607798001e109000ae10900076
:1042b8004809dd004800de0000007100c808de0083
:1042c800004078000074a100707798001e109000dc
:1042d800ae1090008100d1000080d300004078002b
:1042e8000074a100007f98001e109000ae1090008e
:1042f80000407800e1406000600020000008dd0018
:104308000067980092c7b30041c9b3005e209000cf
:10431800fc3507001e4f70005e20900061fe07000c
:104328001e4f7000200220000e004000000178009f
:1043380001c9b3005e2090008e3607001e4f700042
:104348001e109000ae1090004a08de000040780071
:10435800804078000174a1000e60900000c0400009
:10436800107f98001e109000ae1090004308de00e9
:10437800004078000074a100207f98001e10900073
:10438800ae109000c409dd004c00de000080710012
:10439800cc08de00004078000074a100307f98004f
:1043a8001e109000ae1090004b09dd004500de00a5
:1043b80000007100c508de00004078000074a1000c
:1043c800407f98001e109000ae10900000407800ca
:1043d800ff406000200020000008dd000067980012
:1043e800a2c7b30041c9b3005e209000c5350700dd
:1043f8001e4f70005e2090002afe07001e4f7000be
:10440800200220000e0040000001780001c9b3001e
:104418005e209000573607001e4f70001e10900057
:10442800ae1090004e08de00004078008040780012
:104438000174a1000e60900000c04000507f9800f9
:104448001e109000ae1090004708de000040780073
:104458000074a100607f98001e109000ae109000bc
:104468004008de00004078000074a100707f9800ca
:104478001e109000ae109000c709dd004900de0054
:1044880000807100c908de00004078000074a100b7
:1044980000c798001e109000ae1090004e09dd0075
:1044a8004200de0000007100c208de000040780013
:1044b8000074a10010c798000040eb0020c79800c6
:1044c8004ec890000080fb00640060000000e0001f
:1044d800a10032004e5890000080fb00640060008c
:1044e8000000e0009c003a00b2c7b30041c9b30025
:1044f8005e209000833507001e4f70005e209000fc
:10450800e8fd07001e4f7000800220000e004000ea
:104518000001780001c9b3005e209000153607003d
:104528001e4f7000c2c7b30041c9b3005e2090009f
:10453800743507001e4f70005e209000d9fd0700fb
:104548001e4f7000c00220000e00400000017800dd
:1045580001c9b3005e209000063607001e4f7000a8
:1045680032c7b30041c9b3005e209000653507002b
:104578001e4f70005e209000cafd07001e4f70009d
:10458800200220000e0040000001780001c9b3009d
:104598005e209000f73507001e4f70001e10900037
:1045a800ae1090004809dd00c801de0083017100eb
:1045b8004801dd00f0ff2f00010020000202780012
:1045c800030178008001780001007800030262008e
:1045d800000061008000eb00c000dd00000020004a
:1045e8000001be006120b8000001710081817100e6
:1045f800520798006307980042c7b30041c9b30047
:104608005e2090003f3507001e4f70005e2090002e
:10461800a4fd07001e4f7000200220000e0040007d
:104628000001780001c9b3005e209000d135070071
:104638001e4f70001e109000ae1090004808de005b
:10464800010020005e019000ee0190000000710062
:1046580081807100500798006107980052c7b30025
:1046680041c9b3005e209000263507001e4f700038
:104678005e2090008bfd07001e4f70002002200076
:104688000e0040000001780001c9b3005e209000d0
:10469800b83507001e4f70001e109000ae10900035
:1046a8004809dd00c801de00830171004801dd0012
:1046b800f0ff2f00010020000202780003017800bb
:1046c80080017800010078000302620000006100a8
:1046d8008000eb00c000dd00000020000001be00eb
:1046e8006120b800000171008181710032079800d3
:1046f8004307980062c7b30041c9b3005e20900029
:10470800003507001e4f70005e20900065fd070011
:104718001e4f7000200220000e00400000017800ab
:1047280001c9b3005e209000923507001e4f70004b
:104738001e109000ae1090004808de000100200016
:104748003e019000ce019000000071008180710050
:1047580030079800410798000041eb0011c8b300ea
:104768005e209000e73407001e4f700062c0b3005f
:1047780080c0eb005e209000e23407001e4f7000fe
:10478800000220000e0040000001780031c8b3008c
:104798005e2090004b3507001e4f70000e609000a1
:1047a8000024a1000041780031c8b3005e209000c9
:1047b800d43407001e4f700012c0b30080c0eb0055
:1047c8005e209000cf3407001e4f700012c0b30067
:1047d8008040eb005e209000ca3407001e4f700036
:1047e8000041eb0080c0eb005e209000c53407005c
:1047f8001e4f70000041eb0001c8b3005e2090001e
:10480800c03407001e4f70001e4078000004e0000e
:1048180090003a004e589000e74f50008d0032004b
:104828004ec890000080fb006100600000407800e6
:104838000004e0001e0032004e5890000080fb008b
:10484800610060000000e00019003a005e2090005e
:104858009e41900013489a005e209000ae40900060
:1048680021489a000000eb00700798000d003700ff
:10487800310420008e8040007e00900000804000bf
:10488800904078005e2190007e009000000041007a
:10489800e011b000014878007e0090000000e800b8
:1048a800700798007e009000e50f5000f0ff34007c
:1048b8004ec890000080fb00620060000000e0002d
:1048c800130032004e5890000080fb006200600028
:1048d8000000e0000e003a00ee6090005e209000bc
:1048e80071e09900fe6090005e20900001e8990058
:1048f8005e209000900eb000700f9800000320001a
:104908000e004000800078007e08900070f00700dc
:104918004ec890000080fb00640060000000e000ca
:10492800450032004e5890000080fb006400600093
:104938000000e00040003a004e109000de109000a9
:104948005e21900060019900710199006e1090003d
:10495800fe1090005e21900000099900110999004d
:104968005e019000ee0190004918dd00c710de00de
:10497800810070004910dd00400f9800510f980029
:104988005e2090004e099000de09900022089900f0
:10499800330899000000eb00200798003e009000c3
:1049a800ce009000e00f5000e08f58001d0032004c
:1049b8003e019000ce0190002e089000be089000a5
:1049c8000000510081805900000f9800110f9800d5
:1049d8009e089000803e20000088b9000001780001
:1049e8000e0890006000b900000078000001410046
:1049f8008e089000803e20000008b80001014100a8
:104a080082007800cc09dd004400de0000807100df
:104a1800c408de00200798002e0090000000ea007d
:104a2800200798002e009000cf80de005e219000c5
:104a38006001980071019800ce5890004ec890000f
:104a480000c07000006798008e6090005e209000a3
:104a580061e099001e4078000080fa00000006001e
:104a68001400fa00000f9800215798007067200082
:104a7800010020006011b800009fbe000297be0030
:104a8800009020000100200040079800510798007e
:104a98002e5090000080fb008000eb004e0190003b
:104aa8000191b90002017800de019000009ab90076
:104ab8008401780003014100ce0190000018b8007d
:104ac80001014100820078001e01be00028ab9007f
:104ad80004027800009bb9008602780005024200b3
:104ae8000200b800010242008400780060079800c4
:104af8007107980060079800710798006e00900091
:104b0800fe0090000080fa00000006000c00fa0089
:104b180040079800510798000000eb00000f78004c
:104b28006000b80010079800210798000000eb000b
:104b3800300798004e009000de009000e00f500013
:104b4800e08f58002a0032004e009000de009000ee
:104b580061005000e0805800100798002107980075
:104b6800090037001e009000ae0090008100d100bf
:104b78000080d30010079800210798003e0090009d
:104b88000000e800300798001e019000ae01900078
:104b980000f02f00f1ff2f000202780003017800d7
:104ba80080017800010078000302620000006100c3
:104bb8008000eb00c000dd00000020000001be0006
:104bc8006120b8000001710081817100e00f51007f
:104bd800e08f5900e3ff3a003e009000c800dd0076
:104be8001e019000f00f200000006100008f4000bf
:104bf8001e0078000080fa00000006000600fa0097
:104c0800200798006000b800008fbe002e009000ba
:104c18006101b800f00f20000100200002027800b6
:104c28000301780080017800010078000302620027
:104c3800000061008000eb00c000dd0000002000e3
:104c48000001be006120b80000017100818171007f
:104c58002e0090004800de000202be00000378002b
:104c68000603e900030033000402420085824a007b
:104c7800fbff37000400be001200200003002000e4
:104c8800021f4000039748001e00be000080fa0083
:104c9800000006001400fa006007980072079800e8
:104ca800030f9800215798006000b800008fbe00dd
:104cb800ae5090006e00900069ff07002007980032
:104cc800310798002e009000be009000401fb000f1
:104cd8000180b000823e20000300200015ee07008e
:104ce80040079800510798008e089000803e2000e9
:104cf8000088b900000178007e0090006000b900cb
:104d08000000780000014100fe009000803e200075
:104d18000008b80001014100820078004e019000af
:104d2800de0190008301d1000281d3000000410020
:104d3800818049004e019000de019000fded0700e2
:104d4800008fbe001e00be000080fa0000000600b2
:104d58001200fa006007980071079800025798003f
:104d68006000b800008fbe008e5090006e0090006a
:104d78003bff070020079800310798002e0090009d
:104d8800be009000401fb0000180b000823e2000ad
:104d980003002000e7ed070040079800510798003e
:104da8007e0090008000eb004e0190000191b90058
:104db80002017800de019000009ab90084017800b1
:104dc80003014100ce0190000018b8000101410024
:104dd80082007800401fb0000180b000823e2000b1
:104de80003002000d3ed0700008fbe001e00be00a8
:104df8000080fa00000006001e00fa00400f98002c
:104e0800215f9800620f98000040eb00004f780087
:104e18000040eb00504f98006000b8001007980061
:104e2800210798000000eb00700798000000eb00d5
:104e3800400798002e5890000004e0000600320059
:104e48002e589000e14f5000030032002e58900079
:104e5800e24f50001b003a006c0047000001780048
:104e68008040eb004e089000c2110700004f780008
:104e78001e4078000004e00006003a006d0047007c
:104e88000001780061c4b3004e0890008d3307001c
:104e9800004f78005e4890000080fb0057ff070035
:104ea800500798004e48900000417800de009000be
:104eb8004e089000a6ff07001007980021079800e9
:104ec800640037002e589000e34f500023003a004a
:104ed8006c004700000178008040eb004e0890000d
:104ee800a4110700004f78001e4078000004e0007d
:104ef80058003a006c004700000178008040eb0041
:104f08004e0890009b110700004f78001e40780063
:104f18000004e00006003a006e0047000001780037
:104f280011c5b3004e0890007c330700004f78008d
:104f38007e00900031ff0700300798004e4890002f
:104f480000417800be0090004e08900080ff0700e6
:104f580010079800210798003e0037002e5890004f
:104f6800e44f50003b003a00720047008000780090
:104f78004e089000781207000000eb0030079800f8
:104f88005e5090000004e000120032006c00470000
:104f9800000178008040eb004e0890007511070072
:104fa800004f78001e4078000004e00009003a0035
:104fb8006e0047000001780011c5b3004e0890004c
:104fc80056330700004f78007e0090000bff070063
:104fd800300798001e4078000004e00006003a0000
:104fe8006c0047000001780011c0b3004e08900023
:104ff80060110700004f78001e4078000004e000b0
:1050080009003a00700047000001780011c7b3009a
:105018004e08900041330700004f78000e089000ba
:10502800f6fe070040079800ce0090003e00900072
:1050380000805000400798004e48900000417800da
:10504800ce0090004e08900041ff0700100798001e
:10505800210798006e0890001e019000ae01900094
:105068000288be001e4078000080fa00000006009a
:105078001e00fa00300f9800015f9800520f980048
:10508800630f98000040eb00004f78000e58900026
:105098000004e000060032000e589000e14f500076
:1050a800030032000e589000e24f500028003a00ea
:1050b8006c004700000178008040eb003e0890003b
:1050c8002c110700004f78001e4078000004e00013
:1050d80016003a004e489000804078005e09900023
:1050e800ee0990003e089000eafe0700500798007d
:1050f800de00900000102000808f50000300360072
:1051080000c0eb0010479800040037005e009000d4
:10511800004078000040e900104798001e409000c9
:105128008080fb003e08900001a898001e4078008f
:105138000004e00083003a001e41900061c4b300ff
:105148003e0890006f320700004f78007d0037005e
:105158000e589000e34f500029003a001e40780096
:105168000004e00014003a006c00470000017800d9
:105178008040eb003e089000fe100700004f7800ca
:105188004e489000804078005e099000ee0990003b
:105198003e089000bffe0700100798001e00900010
:1051a8008000eb0059fe070070079800fe00900091
:1051b8003e08900001a898001e4078000004e00016
:1051c80006003a007e0090000001780011c5b30087
:1051d8003e08900061320700004f78001e407800ba
:1051e8000004e00057003a003e0890005e09900075
:1051f800ee09900052a8980063a898005100370063
:105208000e589000e44f50004c003a0070004700e0
:10521800800078003e089000cf1107000000eb00e6
:10522800100798003e5090000004e0001200320081
:105238006c004700000178008040eb003e089000b9
:10524800cc100700004f78001e4078000004e000f2
:1052580009003a006e0047000001780011c5b3004c
:105268003e089000ad320700004f78007e009000a5
:1052780062fe0700100798001e4078000004e00056
:1052880006003a006c0047000001780011c0b30026
:105298003e089000b7100700004f78001e407800c5
:1052a8000004e00027003a004e4890008040780053
:1052b8005e099000ee0990003e08900075fe070018
:1052c80020079800310798001e0090008000eb002e
:1052d8002e019000be01900002004000838048002b
:1052e80020079800310798002e009000be0090001b
:1052f80006fe0700400798001e4078000004e00002
:1053080005003a004e01900011c7b3003e08900016
:1053180012320700004f78001e4078000004e000b9
:1053280008003a003e0890005e099000ee099000df
:1053380022a8980033a8980002003700c0cfb30015
:10534800004f78001e4078000080fa000000060038
:105358001c00fa00400f9800215f9800325f980007
:105368000040eb00004f7800c0c0b3001047980021
:1053780020c1b3002047980080c0b3003047980090
:10538800e0c0b300404798000040eb006057980029
:105398003e5890000080fb006100600000407800eb
:1053a8000004e00003003200c0cfb300004f7800d3
:1053b8001b0037002e5890000004e0000b003a0054
:1053c800be5890001e40900080cf50000400390065
:1053d800be5890002e40900080cf50000300360049
:1053e800c0cfb300004f78000d0037002e58900052
:1053f800e14f50000a003a00be5890003e4090002d
:1054080080cf500004003900be5890004e409000f4
:1054180080cf500002003600c0cfb300004f7800a4
:105428001e4078000004e000020032001e407800b0
:105438004b0137002e5890000004e00038003a0075
:105448003e589000ec4f50000b003a0082c1b30068
:1054580071c5b3004e089000aa310700004f7800cc
:1054680082c0b30061c5b3004e089000a5310700a3
:10547800004f7800c80037003e589000ee4f5000ab
:105488000b003a0002c3b30071c5b3004e08900088
:105498009c310700004f780082c0b30061c5b3009b
:1054a8004e08900097310700004f7800ba00370087
:1054b8003e589000f04f50000b003a0002c4b30071
:1054c80071c5b3004e0890008e310700004f780078
:1054d80082c0b30061c5b3004e089000893107004f
:1054e800004f7800ac0037003e589000f24f500053
:1054f800a9003a0002c5b30071c5b3004e08900078
:1055080080310700004f780082c0b30061c5b30046
:105518004e0890007b310700004f78009e0037004e
:105528002e589000e14f50009b003a003e589000e2
:10553800e84f500024003a0002c1b30081c4b30010
:105548004e0890006f310700004f780082c0b3000a
:1055580071c4b3004e0890006a310700004f78000c
:1055680022c0b30021c3b3004e0890006531070084
:105578001e4f7000c2c0b30001c3b3004e089000b4
:10558800603107001e4f700012c0b30080c0eb00ee
:105598004e0890005b3107001e4f700002c3b30035
:1055a80001c3b3004e089000563107001e4f70002b
:1055b8000041eb0080c0eb004e089000513107001d
:1055c8001e4f7000740037003e589000ea4f50009c
:1055d80024003a0082c2b30081c4b3004e08900090
:1055e80048310700004f780082c0b30071c4b3008f
:1055f8004e08900043310700004f780032c0b300d6
:1056080021c3b3004e0890003e3107001e4f7000c2
:1056180092c0b30001c3b3004e08900039310700af
:105628001e4f700012c0b30080c0eb004e089000ff
:10563800343107001e4f700002c2b30001c3b3002b
:105648004e0890002f3107001e4f70000041eb00fc
:1056580080c0eb004e0890002a3107001e4f7000f2
:105668004d0037003e589000ec4f500024003a009f
:1056780082c3b30081c4b3004e08900021310700f3
:10568800004f780082c0b30071c4b3004e08900088
:105698001c310700004f780032c0b30021c3b300ab
:1056a8004e089000173107001e4f700082c0b300eb
:1056b80001c3b3004e089000123107001e4f70005e
:1056c80012c0b30080c0eb004e0890000d310700f7
:1056d8001e4f700002c2b30001c3b3004e08900011
:1056e800083107001e4f70000041eb0080c0eb003e
:1056f8004e089000033107001e4f70002600370047
:105708003e589000ee4f500023003a0082c4b30088
:1057180081c4b3004e089000fa300700004f7800ab
:1057280082c0b30071c4b3004e089000f530070082
:10573800004f780032c0b30021c3b3004e08900078
:10574800f03007001e4f700072c0b30001c3b300f1
:105758004e089000eb3007001e4f700012c0b300d7
:1057680080c0eb004e089000e63007001e4f700026
:1057780002c2b30001c3b3004e089000e130070035
:105788001e4f70000041eb0080c0eb004e089000f7
:10579800dc3007001e4f70001e4078000004e00057
:1057a80057003a003e589000acf807005047980060
:1057b8002e5890000080fb000000e000030032003b
:1057c800e10f5000300032004b0037006e004700f8
:1057d8000001780031c0b3004e08900086fd070034
:1057e800004f78001e4078000004e00006003a00f0
:1057f800720047000001780021c0b3004e089000f5
:105808007dfd0700004f78001e4078000004e0008e
:1058180005003a005e41900001c5b3004e089000b3
:10582800b8300700004f78001e4078000004e00000
:1058380007003a007e0090008e0890000001be002c
:1058480031c0b3004e08900009fe0700004f7800f1
:105858001e4078000004e00007003a001e0890008f
:10586800ae0890000001be0021c0b3004e089000b1
:10587800fffd0700004f78004e089000be589000ca
:1058880061d899001e0037006a00470000017800bf
:1058980041c0b3004e08900057fd0700004f780044
:1058a8001e4078000004e00005003a005e419000c8
:1058b80001c7b3004e08900092300700004f7800ef
:1058c8001e4078000004e00007003a005e009000e7
:1058d800ee0090000001be0041c0b3004e089000e9
:1058e800e3fd0700004f78004e0890003e599000f5
:1058f80002d8990002003700c0cfb300004f7800eb
:105908001e4078000004e0000a003a004e089000ab
:1059180010099000a00990003207980043079800ea
:105928003e019000ce0190004e089000e90e07005d
:10593800004f78001e4078000004e00007003a009d
:105948007600470013c0b3000041eb0080007800e8
:105958004e089000da220700004f78001e407800b9
:105968000080fa00000006000800fa0010079800fe
:1059780041479800320798000040eb00004f78003c
:105988004e4090000080fb000000e0000300320061
:10599800e10f5000080032000e0037000e00e8004a
:1059a8000001780001c5b3001e009000c530070053
:1059b800004f7800090037000e00e8000001780069
:1059c80001c7b3001e009000be300700004f7800ea
:1059d80002003700c0cfb300004f78001e407800a7
:1059e8000004e00004003a001e40900010f8070090
:1059f800be009000804878001e4078000080fa00c1
:105a0800000006003e00fa00401f9800521f980050
:105a1800631f98000040eb00004f7800007d2000d5
:105a280001002000001f9800111f980060772000d7
:105a3800010020003007980041079800003c200032
:105a480001002000500798006107980040292000b5
:105a58000100200070079800010f9800e024200042
:105a680001002000100f9800210f9800202b200023
:105a780001002000300f9800410f980040292000b5
:105a880001002000500f9800610f9800602220004c
:105a980001002000700f9800011798006000b800fe
:105aa800201f9800311f980000e224000100200008
:105ab80010179800211798006000b8003017980058
:105ac800411798005e199000ee1990001e10900082
:105ad800ae109000800f5100818f590004003100f2
:105ae800c0cfb300004f78001e407800cc003700cc
:105af8003e019000ce0190005e009000ee00900004
:105b080002004000838048005e199000ee19900062
:105b18000000510081805900100798002107980063
:105b2800a00220000e004000800078004e1890006f
:105b3800890f0700004f78001e4078000004e0003d
:105b480074003a002e6890000004e00006003a0055
:105b58003e6890000004e00003003a004e689000a0
:105b68000004e0006b003200000320000e0040003b
:105b78000001780021c0b3004e1890009efc070079
:105b8800004f78001e4078000004e0000200320058
:105b98001e407800a20037002e6890000004e00044
:105ba8001a0032000e1990009e1990001e089000ed
:105bb800ae0890000200400083804800301798002b
:105bc800411798003e119000ce1190001e009000e1
:105bd800ae009000800f5100818f590009003100fc
:105be8001e019000ae0190003e109000ce10900073
:105bf8000000510081805900100798002107980083
:105c080002003700c0cfb300004f78001e40780074
:105c18000004e000020032001e40780080003700d7
:105c28004e6890000004e0001d0032000e1990003c
:105c38009e1990003e089000ce0890000200400097
:105c48008380480000004000818048003017980099
:105c5800411798003e119000ce1190001e00900050
:105c6800ae009000800f5100818f5900090031006b
:105c78001e019000ae0190003e109000ce109000e2
:105c880000005100818059001007980021079800f2
:105c980020003700c0cfb300004f78001d00370048
:105ca8003e6890000004e0001a0032000e199000cf
:105cb8009e1990007e0090008e089000020040001f
:105cc8008380480030179800411798003e119000d3
:105cd800ce1190001e009000ae009000800f510081
:105ce800818f5900090031001e019000ae0190001b
:105cf8003e109000ce1090000000510081805900a5
:105d0800100798002107980002003700c0cfb300a1
:105d1800004f78001e4078000004e00002003200c6
:105d28001e4078003e0037005e6890000004e000e6
:105d380021003200400320000e00400000017800de
:105d480031c0b3004e1890002bfc0700004f7800bc
:105d58002e199000be1990005e089000ee08900081
:105d680002004000838048003017980041179800cf
:105d78003e119000ce1190001e009000ae009000e1
:105d8800800f5100818f5900090031001e019000d9
:105d9800ae0190003e109000ce109000000051001f
:105da80081805900100798002107980002003700e9
:105db800c0cfb300004f78001e4078000004e00018
:105dc80016003a006e6890000004e00013003200ec
:105dd8001e019000ae0190007e0890008e10900089
:105de8000000510081805900100798002107980091
:105df8001e019000ae01900041c0b3004e18900003
:105e08009bfc0700004f78004e1890005e19900028
:105e1800ee19900012089800230898001e40780098
:105e28000080fa00000006003400fa00001f980005
:105e3800111f98000040eb00004f7800007d200003
:105e48000100200040179800511798006077200043
:105e5800010020001007980021079800003c20004e
:105e680001002000300798004107980040292000d1
:105e7800010020005007980061079800e0242000e6
:105e88000100200070079800010f9800202b2000c7
:105e980001002000100f9800210f980040292000d1
:105ea80001002000300f9800410f98006022200068
:105eb80001002000500f9800610f98006000b800a2
:105ec80060179800711798001e019000ae019000ad
:105ed8003e009000ce009000020040008380480001
:105ee8001e1990000089be007e00470080007800df
:105ef8000e189000980e0700004f78001e4078009a
:105f08000004e000020032001e4078007e003700e6
:105f18006e5890000004e00006003a007e58900099
:105f28000004e00003003a000e6090000004e00066
:105f38003a003200800220000e0040000001780084
:105f480021c0b3000e189000abfb0700004f78008b
:105f58001e4078000004e00030003a006e589000bf
:105f68000004e0000c0032001e1890001001be0072
:105f78004e129000de1290007e0090008e08900075
:105f880004004000858048000200400083804800eb
:105f98001e1990000089be000e6090000004e00009
:105fa8000f0032001e1890001001be004e12900023
:105fb800de1290001e089000ae0890000400400019
:105fc80085804800000040008180480002004000b1
:105fd800838048001e1990000089be000f0037001a
:105fe8007e5890000004e0000c0032001e1890005b
:105ff8001001be004e129000de1290005e0090006c
:10600800ee00900004004000858048000200400037
:10601800838048001e1990000089be001e40780049
:106028000004e00016003a001e6090000004e00042
:1060380013003200c00220000e004000000178006a
:1060480031c0b3000e1890006bfb0700004f7800ba
:106058001e1890001001be006e129000fe129000f3
:106068003e089000ce08900004004000858048005b
:1060780002004000838048001e1990000089be007d
:106088001e4078000004e00016003a002e609000e0
:106098000004e00013003200400220000e0040001f
:1060a8000001780041c0b3000e18900052fb0700b1
:1060b800004f78001e1890001001be002e129000ac
:1060c800be1290005e089000ee08900004004000a8
:1060d8008580480002004000838048001e19900017
:1060e8000089be001e4078000004e00005003a0068
:1060f8001e1890001000be000e199000100998009c
:10610800210998001e4078000080fa00000006006f
:106118001600fa00100f9800210f98000040eb00bd
:10612800004f78000000eb0020079800be00370001
:106138002e009000ae08900000804000904078004b
:10614800614798002e0090000000e80020079800a2
:106158006e409000e14f400086003a002e0090000b
:10616800ae08900000804000904078007147980089
:106178002e0090000000e800200798007e40900064
:106188000080fb00e10f500025003200e10f5000b5
:1061980003003c000000e0000600320072003700f7
:1061a800e20f500039003200e30f50005200320075
:1061b8006d0037002e009000ae089000008040006f
:1061c80090407800014f98002e0090000000e800f1
:1061d800200798002e009000ae0890000080400034
:1061e80090407800114f98002e0090000000e800c1
:1061f800200798000e4890000080fb00c800dd00d2
:106208001e4890000080fb00008040005007980066
:106218001e089000de0090004110990082003700af
:106228002e009000ae08900000804000904078005a
:10623800014f98002e0090000000e8002007980009
:106248002e009000ae08900000804000904078003a
:10625800114f98002e0090000000e80020079800d9
:106268000e4890000080fb00c800dd001e4890002a
:106278000080fb0000804000500798001e08900036
:10628800de00900051109900670037002e00900042
:10629800ae0890000080400090407800014f9800c0
:1062a8002e0090000000e800200798002e009000c3
:1062b800ae0890000080400090407800114f980090
:1062c8002e0090000000e800200798000e4890007b
:1062d8000080fb00c800dd001e4890000080fb0025
:1062e80000804000500798001e089000de009000d3
:1062f800611099004c0037002e009000ae08900005
:106308000080400090407800014f98002e009000d7
:106318000000e800200798002e009000ae089000ca
:106328000080400090407800114f98002e009000a7
:106338000000e800200798000e4890000080fb004d
:10634800c800dd001e4890000080fb00008040006f
:10635800500798001e089000de0090000118990070
:106368000000000030003700c0cfb300004f7800b5
:106378002d0037006e409000e44f500028003e008a
:106388002e009000ae0890000080400090407800f9
:10639800414f98002e0090000000e8002007980068
:1063a8000000eb00100798000e0037002e00900048
:1063b800ae08900000804000904078006d014700d2
:1063c8001e00900000004100014878002e00900057
:1063d8000000e800200798001e0090000000e80078
:1063e800100798006e4090008080fb001e0090000f
:1063f800808f5000edff3c006e4090000080fb0055
:106408008000eb006d0147000002be00ce489000fe
:106418001e089000712d0700004f78000200370019
:10642800c0cfb300004f78002e009000ae08900057
:1064380000804000104078000004e00003003200b3
:106448001e4078000004e00039ff32001e4078004a
:106458000080fa00000006001200fa0060079800a9
:1064680071079800020f98000040eb00004f780079
:106478000e0990006000b8000089be006a0047005d
:10648800800078006e009000a60e0700004f78008c
:106498001e4078000004e00024003a002e489000d6
:1064a8000004e000210032006e00900070099000a6
:1064b8008011900012079800230798007e00900032
:1064c800200890008000eb001e0190000191b900a7
:1064d80002017800ae019000009ab90084017800aa
:1064e800030141009e0190000018b800010141001d
:1064f800820078003007980041079800300798001c
:10650800410798003e009000ce0090000008b000bf
:106518000180b000c809dd004800de00008071007d
:10652800c808de000e0990000089be001e407800f1
:106538000080fa00000006000c00fa0030079800fe
:1065480041079800520798000040eb00004f780080
:106558004e009000f0009000600090005e019000f6
:106568000089be000e80e80000017800ce0090008f
:106578003e009000b8ff0700004f78001e407800ea
:106588000004e00008003a005e0090001001be0020
:106598001e009000ae00900002004000838048007a
:1065a8005e0190000089be001e4078000080fa005d
:1065b800000006006600fa00302f9800422f98006d
:1065c800532f9800642f9800752f9800063798006d
:1065d800173798002137980020012000010020007b
:1065e800000f9800110f98000000240001002000ff
:1065f800200f9800310f980020042000010020008f
:10660800400f9800510f9800600020000100200002
:10661800600f9800710f98007000200001002000a2
:1066280000179800111798000040eb004067980089
:106638003e289000202091008000eb003017980041
:10664800411798003e28900030219100c021910008
:106658005217980063179800ce1090005e109000b3
:106668000088b90000017800ee1090003e109000fc
:106678000088b9000000780000014100be109000b9
:106688005e1090000008b800010141008200780007
:1066980070179800011f980070179800011f980044
:1066a8007e1090008e1890000008b0000180b000a5
:1066b800c809dd004800de0000807100c808de005f
:1066c80070179800011f98008e1890003e109000d7
:1066d8000088b90000017800ce1090007e1090006c
:1066e8000088b9000000780000014100fe10900009
:1066f8003e1090000008b8000101410082007800b7
:1067080070179800011f980070179800011f9800d3
:106718006000b800008fbe006e289000fe28900030
:10672800e00f5000e08f58003a0032004e299000e8
:10673800de2990004a18dd00c610de0081007000d6
:106748004a10dd00101f9800211f98006e28900045
:10675800fe2890008101d1000081d3001e1890000e
:10676800ae189000001f4100019749006e29900063
:10677800fe2990001e00be006ee70700008fbe00d5
:106788001e0090006300b900000178001e00780028
:106798006000b90000007800000141009e00780008
:1067a800300020000008b800010141008200780094
:1067b800008fbe00008fbe009e0090001e00780073
:1067c8000088b900000178009e0090001e00780043
:1067d8000088b90000007800000141001e00780020
:1067e8001e00b8000101410082007800008fbe0041
:1067f800008fbe0000002800010020003e0140007c
:10680800ae8148000200be004008de000100200002
:10681800008fbe009e3090003eb897000088b900f7
:1068280000017800ceb897000e3090000088b900bb
:1068380000007800000141008e3090003eb89700bb
:106848000008b8000101410082007800301f98005c
:10685800411f9800301f9800411f98003e19900072
:10686800ce1990000000280001002000020040001e
:10687800838048004008de0001002000301f980097
:10688800411f9800ce1890003e1890000088b9006b
:1068980000017800ce1890003e1890000088b900da
:1068a8000000780000014100be1890003e189000da
:1068b8000008b8000101410082007800301f9800ec
:1068c800411f9800301f9800411f98001eb997007b
:1068d800aeb9970000002800010020000200400027
:1068e800838048004008de0001002000501f980007
:1068f800611f98006e089000fe0890008101d10089
:106908000081d3005e189000ee189000020040004d
:10691800838048006e099000fe09900005e7070093
:10692800501f9800611f9800ee1890000e109000fc
:106938000088b900000178009e1090005e18900051
:106948000088b9000000780000014100de189000be
:106958000e1090000008b800010141008200780084
:10696800501f9800611f9800501f9800611f9800e1
:106978005e199000ee199000f0ff2f000100200032
:10698800800f5100818f590005003600000020005b
:1069980001ff2f0020079800310798003b003700bf
:1069a8006e089000fe0890008101d1000081d3009c
:1069b8001eb89700aeb897000200400083804800d8
:1069c8006e099000fe099000dae6070010bf9f00ec
:1069d80021bf9f00aeb897000e1090000088b90044
:1069e800000178009e1090001eb897000088b9003a
:1069f80000007800000141009eb897000e1090003a
:106a08000008b800010141008200780010bf9f0013
:106a180021bf9f0010bf9f0021bf9f001eb9970094
:106a2800aeb99700000028000100200002004000d5
:106a3800838048004008de000100200020079800fd
:106a480031079800be0090002e0090000088b90021
:106a580000017800be0090002e0090000088b90068
:106a68000000780000014100ae0090002e00900068
:106a78000008b80001014100820078002007980052
:106a88003107980020079800310798000e099000f8
:106a98009e0990004e18dd00c210de0081007000d3
:106aa8004e10dd00401fb0000180b000823e200083
:106ab800030020009fe60700701f98000127980038
:106ac8008e2090007e1890000088b90000017800a0
:106ad8008e2090007e1890000088b9000000780091
:106ae80000014100fe1890007e1890000008b800d0
:106af8000101410082007800701f9800012798006a
:106b0800701f980001279800de0890004e0890003a
:106b18000088b90000017800de0890004e08900057
:106b28000088b9000000780000014100ce089000fc
:106b38004e0890000008b80001014100820078006a
:106b480010279800212798001027980021279800df
:106b58001e209000ae20900068004000e0804800b1
:106b6800cc09dd004400de0000807100c408de00ae
:106b780010279800212798007e1990008e219000f8
:106b88001e209000ae209000000051008180590026
:106b9800701f9800012798008e20900000032000a5
:106ba8000088b900000178007e1890006000b900e4
:106bb8000000780000014100fe189000000320004a
:106bc8000008b800010141008200780030279800d1
:106bd8004127980030279800412798003e219000cf
:106be800ce21900000002200010020000200400099
:106bf800838048004209dd004e00de00000071007d
:106c0800ce08de0030279800412798003e199000f2
:106c1800ce1990002e009000be00900002004000a7
:106c28008380480050279800612798007eb097001d
:106c38008eb897008100d1000080d3005e219000bb
:106c4800ee21900002004000838048005027980001
:106c5800612798007eb197008eb997005e2090005a
:106c6800ee20900033e6070050279800612798002f
:106c78005e219000ee2190004e18dd00c210de006b
:106c8800810070004e10dd005027980061279800a1
:106c98003e209000ce2090008100d1000080d300db
:106ca8005e219000ee2190000200400083804800a1
:106cb80050279800612798003e219000ce2190002f
:106cc8005e209000ee2090001ae6070050279800fa
:106cd80061279800ee2090001e0078000088b90017
:106ce800000178009e0090005e2090000088b900a6
:106cf80000007800000141005e2090001e00b800ee
:106d0800010141008200780050279800612798000f
:106d180050279800612798005e209000ee20900090
:106d2800401fb0000180b000823e20000300200018
:106d380000e6070050279800612798005e21900020
:106d4800ee2190004418dd00cc10de0081007000b8
:106d58004410dd0050279800612798005e209000bd
:106d6800ee209000401fb0000180b000823e20005d
:106d780003002000efe507005027980061279800de
:106d88002e089000be0890000008b0000180b000f6
:106d9800c809dd004800de0000807100c808de0078
:106da80070279800012f98007e2090008e28900070
:106db800e00f5000e08f58000e0032007e20900057
:106dc8008e2890008101d1000081d3007e109000b0
:106dd8008e18900002004000838048007e219000b9
:106de8008e299000d3e50700600798007107980086
:106df800030037006000b80060079800710798002a
:106e08006e009000fe00900020f30700102f9800fd
:106e1800212f98005e209000ee209000e00f500097
:106e2800e08f58000e0032005e209000ee209000a7
:106e38008101d1000081d3007e1090008e1890004f
:106e480002004000838048005e219000ee219000ff
:106e5800b8e507004007980051079800030037007d
:106e68006000b80040079800510798004e00900055
:106e7800de00900005f307004007980051079800ce
:106e88002e3090001e299000ae2990000288be0086
:106e98001e299000ae2990004e009000de00900060
:106ea800800f5100818f5900040036002e30900069
:106eb8004e019000de0190000288be004e609000f6
:106ec8000080fa0000000600b200fa00509798000f
:106ed8006197980072979800039f980000322000ed
:106ee80001002000501798006117980080252000a5
:106ef8000100200070179800011f98000000200072
:106f080091012000101f9800211f9800c025210022
:106f180001002000301f9800411f9800e07a2800e7
:106f2800f1282000501f9800611f980000002f00d2
:106f380001002000701f9800012798007e11900022
:106f48008e1990000000200001002f0079e507004d
:106f58001027980021279800a09929006100200097
:106f680030279800412798000000280001002000e1
:106f78005027980061279800000020002103200076
:106f880070279800012f98007067200001002000ea
:106f9800102f9800212f98000040eb000067980000
:106fa8005e909000801090007008900010979800f4
:106fb800219798006e90900090089000000890002b
:106fc800823e20000289b900020178006002b900ff
:106fd8008401780003014100833e20000300b800cb
:106fe80001014100820078004008de000100200015
:106ff800302f9800412f98006e909000600190000b
:10700800f0019000522f9800632f9800600a20002a
:107018000e00400000017800ee9090005e90900015
:1070280045fd070000679800200a20000e00400078
:1070380000017800ee9090005e90900006fd070039
:10704800006798003e909000ce909000823e20000d
:107058000289b900020178006002b9008401780051
:1070680003014100833e20000300b80001014100f4
:1070780082007800702f980001379800702f9800d0
:10708800013798007e2990008e319000000028007a
:107098000100200002004000838048004008de0014
:1070a80001002000702f9800013798001e90900072
:1070b800ae909000823e20000289b900020178005b
:1070c8006002b9008401780003014100833e20007a
:1070d8000300b8000101410082007800600f9800a9
:1070e800710f9800600f9800710f98006e0990005a
:1070f800fe0990007e2090008e289000800f51009d
:10710800818f5900040036007e2190008e2990005e
:10711800620f9800730f98000e6090000004e00062
:107128008e003a005e90900020a99000b0a99000cf
:1071380022079800330798005e90900080d991004c
:1071480023e79800aee090002e019000be01900069
:107158005e909000cff607002037980031379800ee
:107168005e90900050a99000e0a990004207980016
:10717800530798005e909000e0d9910003ef9800c3
:107188008ee890004e019000de0190005e90900025
:10719800c0f607005037980061379800300020008b
:1071a8000100200010179800211798002ee0900089
:1071b800e84f500004003a002000200001002000a1
:1071c80010179800211798005e319000ee3190005a
:1071d8002e309000be3090000200400083804800ae
:1071e8001e1190000191b90002017800ae119000c3
:1071f800009ab90084017800030141009e119000b3
:107208000018b80001014100820078004b09dd0038
:10721800c501de00830171004b01dd0032179800c3
:10722800431798003e109000ce109000401fb00009
:107238000180b000823e200003002000bde407006a
:107248003017980041179800ce1090001e28900023
:107258000088b90000017800ae2890003e10900028
:107268000088b9000000780000014100be109000bd
:107278001e2890000008b800010141008200780033
:107288003017980041179800301798004117980058
:107298003e109000ce109000401fb0000180b0005a
:1072a800823e200003002000a2e407003017980067
:1072b800411798003e909000ce9090000008b000d2
:1072c8000180b0004809dd004800de0000007100c0
:1072d800c808de0030979800419798003e909000cb
:1072e800ce9090003e1190000191b9000201780003
:1072f800ce119000009ab900840178000301410082
:10730800be1190000018b800010141008200780009
:10731800008fbe00008fbe0002082000030020007e
:107328003e004100ae804900c809dd004800de008b
:1073380000807100c808de00008fbe003e919000fa
:10734800ce9190004818dd00c810de008100700062
:107358004810dd0030979800419798000e60900023
:107368000004e000020032000e609000280237009e
:107378007e2890008e309000e00f5000e08f58007b
:107388000d003a007e9090005e199000ee19900072
:107398000288be005e9090005e199000ee19900081
:1073a80012189900231899000e9990006000b800ef
:1073b8000089be00150237001e00be00e00f500015
:1073c800e08f580003003a00100020000100200060
:1073d800008fbe005e119000ee1190007237980089
:1073e800033f98003e289000ce289000c000dd00a2
:1073f800000020007e2990008e3190004de40700a7
:1074080060079800710798006e019000fe019000d7
:107418001e209000ae209000800f5100818f5900ef
:10742800040036001e219000ae21900062079800eb
:1074380073079800fe0090007e1090000088b90045
:10744800000178008e1890006e0090000088b90046
:107458000000780000014100ee0090007e109000ce
:107468000008b80001014100820078006007980018
:107478007107980060079800710798001e00900037
:107488006c00b900000178001e0078006000b900a7
:1074980000007800000141009e007800c000200034
:1074a8000008b800010141008200780077f1070068
:1074b8000000400081804800103f9800213f98005c
:1074c8006e909000400090008000eb003e219000fc
:1074d8000191b90002017800ce219000009ab9000c
:1074e8008401780003014100be2190000018b80013
:1074f8000101410082007800303f9800413f980028
:10750800303f9800413f98007e2890008e309000d0
:10751800c001dd00020020006e089000fe08900007
:10752800000040008180480000005100818059001f
:10753800401fb0000180b000823e20000300200000
:10754800fce30700503f9800613f98007e289000b8
:107558008e309000c000dd0000002000401fb00009
:107568000180b000823e200003002000f1e3070004
:10757800703f9800018798005e399000ee399000be
:107588004818dd00c810de00810070004810dd00da
:10759800503f9800613f98007e3990008e8190009e
:1075a8005e389000ee389000e2e3070000007800b3
:1075b80000f0a7000000ea00cf80de0010879800e6
:1075c800218798001e819000ae8190004818dd0048
:1075d800c810de00810070004810dd001087980098
:1075e800218798006e909000005890000004e000f9
:1075f800050032000000200011002000000f980054
:10760800110f98004e0037003e199000ce199000d7
:107618003e389000ce389000c6e30700000f98006f
:10762800110f980002002000130020001e80900017
:10763800ae80900000005100818059001e09900022
:107648000091b900020178008e099000019ab900f2
:1076580084017800030141008e0990000018b800e9
:107668000101410082007800000f9800110f980076
:10767800000f9800110f98000e0990009e099000c5
:107688005e209000ee2090000200400083804800b9
:107698004008de0001002000000f9800110f98003c
